:1000000027C04BC04AC049C048C067C546C045C0AC
:1000100044C043C042C041C040C03FC03EC00000D9
:100020000000360001020000040000000000000093
:100030000000380000000000370002020202020245
:100040000202020201020408102020041008B70571
:1000500011241FBECFE5D2E0DEBFCDBF10E0A0E689
:10006000B0E0E4E2F0E102C005900D92A438B107DF
:10007000D9F720E0A4E8B0E001C01D92AA3EB20783
:10008000E1F710E0C8E2D0E003C02197FE0190D76D
:10009000C732D107D1F783D5C3C7B2CFCF93DF9390
:1000A00090E0FC01EC5BFF4F2491FC01E65CFF4F0C
:1000B00084918823C1F090E0880F991FFC01EC5CCB
:1000C000FF4FC591D491FC01E25DFF4FA591B49122
:1000D0009FB7F8948881E22FE0958E2388838C91D6
:1000E000E823EC939FBFDF91CF9108953FB7F89439
:1000F0008091870090918800A0918900B0918A003A
:1001000022B708B601FE05C02F3F19F00196A11DC8
:10011000B11D3FBFBA2FA92F982F8827820F911D9D
:10012000A11DB11DBC01CD0142E0660F771F881FE4
:10013000991F4A95D1F708952F923F924F925F925F
:100140006F927F928F929F92AF92BF92CF92DF92E7
:10015000EF92FF920F931F93CF93DF9300D000D0C5
:10016000CDB7DEB7E82E8091DD009091DE00A09142
:10017000DF00B091E000892B8A2B8B2BE1F0B6DFFA
:100180000091D6001091D7002091D8003091D9006D
:10019000DC01CB01801B910BA20BB30B0091DD00A6
:1001A0001091DE002091DF003091E0008017910770
:1001B000A207B307C0F29ADF6093D6007093D7000E
:1001C0008093D8009093D900E091E500F091E6008B
:1001D000309759F04091E1005091E2006091E300C6
:1001E0007091E4008E2D0995E82E0091D4001091B5
:1001F000D5002E2C312C412C512C0115110509F460
:1002000062C0D8011C96BC91BC838091DB009091A8
:10021000DC008436910510F4F8011486D801ED91C4
:10022000FC918280938019821A821B82E11015C092
:10023000F80145855685628173819E012F5F3F4F8E
:10024000C801F4010995EC81D8011C96EC931C9728
:1002500014960D911C911597D0CF6801F9E0CF0E3F
:10026000D11CCE0101965C0138019CE0690E711C25
:10027000F6013397F080D6016D916D01FF20E1F01A
:100280006623D1F0862F90E0A0E0B0E0BC01CD0164
:100290006F5F7F4F8F4F9F4FA201910123D68F2D0C
:1002A00090E0A0E0B0E0BC01CD016F5F7F4F8F4FC9
:1002B0009F4F18D6F5014083FFEFAF1ABF0AC6144F
:1002C000D704B1F6B5CF8091D2009091D3009C01B4
:1002D0002F5F3F4F3093D3002093D20049970CF407
:1002E00040C08FB7F8940091CA001091CB002091C4
:1002F000CC003091CD008FBF8091D2009091D3007F
:1003000068EE73E08BD5BC01990F880B990BC090F8
:10031000CE00D090CF00E090D000F090D100A901A5
:1003200098012C193D094E095F099CD53093DC00DA
:100330002093DB001092D3001092D2002FB7F894D4
:100340008091CA009091CB00A091CC00B091CD00DB
:100350002FBF8093CE009093CF00A093D000B09396
:10036000D1000F900F900F900F90DF91CF911F91C0
:100370000F91FF90EF90DF90CF90BF90AF909F9044
:100380008F907F906F905F904F903F902F90089547
:100390008F929F92AF92BF92CF92DF92EF92FF9295
:1003A0006B017C01A3DE4B015C01C114D104E104AB
:1003B000F104E9F09BDEDC01CB0188199909AA0957
:1003C000BB09883E9340A105B10578F321E0C21A2C
:1003D000D108E108F10888EE880E83E0981EA11C80
:1003E000B11CC114D104E104F10421F7DECFFF9068
:1003F000EF90DF90CF90BF90AF909F908F90089537
:10040000CF92DF92EF92FF920F931F93CF93DF93E0
:100410008C01909185009F5F392F37703093850054
:1004200090FF02C020E801C020E031FD206434705C
:1004300009F02062205FF8013C96015F1F4FE12C1C
:10044000FF24F39430E06191662331F070E0C7013E
:10045000F6D441E0460F01C040E0DF0114974C9311
:10046000842F90E00196B901D9D4C92ED12CCF01A7
:100470000797C114D10419F4EC01188204C05FEF8E
:100480005C0DEC015883442311F041504C93E0176C
:10049000F107C9F6DF91CF911F910F91FF90EF9077
:1004A000DF90CF9008954F925F926F927F928F92DC
:1004B0009F92AF92BF92CF92DF92EF92FF920F93F3
:1004C0001F93CF93DF933C01EB0110DEF3012785EF
:1004D0003089621B730B6A307105B8F3F894E881B8
:1004E000F98158B3516088B38E7F88BB6A859F813C
:1004F000262F291B922F2F83BF844A805B807D8506
:10050000FC84EE847F5FF394E3943E814885A98464
:10051000CB841181D20120E0C32F022F322F3181F1
:10052000112788943111390F08F43FEF9195889481
:1005300070FD130F1795889471FD130F179588940C
:1005400072FD130F1795889473FD130F17958894F8
:1005500074FD130F1795889475FD130F17958894E4
:1005600076FD130F1795889477FD130F17958894D0
:10057000232F7111212F960F122F002C58BB00C072
:1005800017FF88BB30812227889400C000C0002C50
:1005900088BB31113C0F00C0002C58BB00C016FFB7
:1005A00088BB08F43FEFC195889400C000C0002CC0
:1005B00088BBF0FC230F00C0002C58BB00C015FF07
:1005C00088BB27958894F1FC230F00C000C0002C45
:1005D00088BB2795889400C0002C58BB00C014FF2E
:1005E00088BBF2FC230F2795889400C000C0002C24
:1005F00088BBF3FC230F00C0002C58BB00C013FFC6
:1006000088BB27958894F4FC230F00C000C0002C01
:1006100088BB2795889400C0002C58BB00C012FFEF
:1006200088BBF5FC230F2795889400C000C0002CE0
:1006300088BBF6FC230F00C0002C58BB00C011FF84
:1006400088BB27958894F7FC230F00C000C0002CBE
:1006500088BB2795889400C0002C58BB00C010FFB1
:1006600088BB132FF110122FCA0D00C000C0002C40
:1006700088BB00C000C0002C58BB00C017FF88BB5F
:1006800032812227889400C000C0002C88BB311121
:10069000340F00C0002C58BB00C016FF88BB08F404
:1006A0003FEFEB0DF11D00C000C0002C88BBE0FC4B
:1006B000230F00C0002C58BB00C015FF88BB279536
:1006C0008894E1FC230F00C000C0002C88BB279554
:1006D000889400C0002C58BB00C014FF88BBE2FC0B
:1006E000230F2795889400C000C0002C88BBE3FC32
:1006F000230F00C0002C58BB00C013FF88BB2795F8
:100700008894E4FC230F00C000C0002C88BB279510
:10071000889400C0002C58BB00C012FF88BBE5FCC9
:10072000230F2795889400C000C0002C88BBE6FCEE
:10073000230F00C0002C58BB00C011FF88BB2795B9
:100740008894E7FC230F00C000C0002C88BB2795CD
:10075000889400C0002C58BB00C010FF88BB132F2A
:10076000E110122F419500C000C0002C88BB4C0D39
:1007700000C000C058BB00C017FF88BB31812227D2
:10078000889400C000C0002C88BB3111390F00C014
:10079000002C58BB00C016FF88BB08F43FEF9195B2
:1007A000889400C000C0002C88BB70FD230F00C0DF
:1007B000002C58BB00C015FF88BB2795889471FD9D
:1007C000230F00C000C0002C88BB2795889400C070
:1007D000002C58BB00C014FF88BB72FD230F279567
:1007E000889400C000C0002C88BB73FD230F00C09C
:1007F000002C58BB00C013FF88BB2795889474FD5C
:10080000230F00C000C0002C88BB2795889400C02F
:10081000002C58BB00C012FF88BB75FD230F279525
:10082000889400C000C0002C88BB76FD230F00C058
:10083000002C58BB00C011FF88BB2795889477FD1A
:10084000230F00C000C0002C88BB2795889400C0EF
:10085000002C58BB00C010FF88BB132F7111122F42
:10086000960F00C000C0002C88BB119709F086CEFF
:10087000B201052C000C880B990B20EE31E040E012
:1008800050E030D349015A0154E0B694A7949794AC
:1008900087945A95D1F7C2016BE970E0BFD2292F36
:1008A00030E0820E931EA11CB11C89EE881683E0F5
:1008B0009806A104B104A0F1E8EE8E1AE3E09E0AC6
:1008C000A108B10882E0B694A794979487948A957A
:1008D000D1F7C40123E0880F991F2A95E1F7892FEA
:1008E00099272091840030E0820E931E880E991E75
:1008F0008091CA009091CB00A091CC00B091CD0026
:10090000292D3327820F931FA11DB11D8093CA008B
:100910009093CB00A093CC00B093CD008092840044
:100920007894E4DBF301708B6787DF91CF911F919F
:100930000F91FF90EF90DF90CF90BF90AF909F907E
:100940008F907F906F905F904F90089580E991E035
:100950000895B89A08950F931F93CF93DF93CDB75F
:10096000DEB762970FB6F894DEBF0FBECDBF8C0125
:10097000F901DC011C968C917A8369835C834B833B
:100980005E834D8390819D8791819E8792819F8711
:10099000813021F4CE01019633DD06C01C861B8612
:1009A0001A86198618861F8283E0888B1A8A198A0C
:1009B000D801ED91FC910484F585E02DBE016F5FB7
:1009C0007F4FC801099562960FB6F894DEBF0FBE3F
:1009D000CDBFDF91CF911F910F9108950F931F937A
:1009E000CF93DF93CDB7DEB762970FB6F894DEBF33
:1009F0000FBECDBF8C01F901DC011C968C917A836E
:100A000069835C834B835E834D8390819D87918155
:100A10009E8792819F87813021F4CE010196F0DC80
:100A200006C01C861B861A86198618861F82188A9D
:100A30001A8A198AD801ED91FC910484F585E02D7C
:100A4000BE016F5F7F4FC801099562960FB6F8949B
:100A5000DEBF0FBECDBFDF91CF911F910F910895E3
:100A6000FC0140813181228180E090E0FC01EA5567
:100A7000FF4F408331832283039684329105B1F77F
:100A8000089580E090E00895FC018585968508959D
:100A9000CF93DF9300D000D000D0CDB7DEB7AB014D
:100AA0001C821D821E82DC01ED91FC910190F0817F
:100AB000E02D19821A821B829E012F5F3F4FBE01DB
:100AC0006C5F7F4F099526960FB6F894DEBF0FBE78
:100AD000CDBFDF91CF9108959FD21F920F920FB695
:100AE0000F9211242F933F938F939F93AF93BF93B4
:100AF0008091CA009091CB00A091CC00B091CD0024
:100B00003091860023E0230F2D3720F40196A11D9C
:100B1000B11D05C026E8230F0296A11DB11D20932B
:100B200086008093CA009093CB00A093CC00B09332
:100B3000CD008091870090918800A0918900B091AC
:100B40008A000196A11DB11D8093870090938800B3
:100B5000A0938900B0938A00BF91AF919F918F912C
:100B60003F912F910F900FBE0F901F901895EAEDB7
:100B7000F0E08FEF808312821182148613868FEF4C
:100B80009FEFDC0187839087A187B287E7EEF0E0D3
:100B900088EC808384E6818384E182830895CF9307
:100BA000DF9300D01F92CDB7DEB778948AB582600C
:100BB0008ABD8AB581608ABD83B7826083BF83B7EF
:100BC000816083BF89B7826089BF80B7826080BF40
:100BD00080B7816080BF329A319A309A379A8CB54B
:100BE00080648CBD80919E00811145C01092900060
:100BF00010928F008FEF80939300809394008093E6
:100C0000950080939600809397008093980081E0F0
:100C10008093990010929B0010929A00109292007B
:100C2000109291008091D4009091D500892B31F4DD
:100C30008DE890E09093D5008093D400E0918B00F4
:100C4000F0918C00309721F08DE890E095838483BB
:100C50008DE890E090938C0080938B0010929D0023
:100C600010929C0086E790E090938E0080938D0018
:100C700081E080939E00E0918D00F0918E000480D1
:100C8000F581E02D8DE890E0099586EA90E090935B
:100C9000900080938F008CE090E090939B00809375
:100CA0009A00E0918D00F0918E000284F385E02D92
:100CB0008DE890E00995009721F19C0140E050E01B
:100CC00060E472E48FE090E0EFD0722F632F009128
:100CD000DD001091DE002091DF003091E000872FD1
:100CE000962FDA0180179107A207B30710F4D901F4
:100CF000C8018093DD009093DE00A093DF00B093E5
:100D0000E0008FEF8093DA0081E0C8D982E0C6D995
:100D100085E0C4D98091E70089838091E8008A83C7
:100D20008091E9008B83CE0101969ADE8091DA00F2
:100D300003DA64E670E080E090E02ADB19821A8230
:100D40001B82CE0101968CDE8091DA00F5D905E296
:100D500010E045E4E42E40E0F42E5BE3C52E50E0C5
:100D6000D52E60E0A62E60E0B62EF8019491F70132
:100D70002491F6018491882331F1992399F09230DE
:100D800071F028F4913071F49AB59F770AC09330CE
:100D900011F0943039F49CB59F7D9CBD03C09AB589
:100DA0009F7D9ABD90E0880F991F825E9F4FFC0146
:100DB000A591B4918C91282341E030E009F440E002
:100DC000842F932F02C080E090E02091600030914A
:100DD00061002817390781F09093610080936000CB
:100DE0007090E7008090E8009090E90068E270E081
:100DF00080E090E0CDDA03C0912C812C712C7982B7
:100E00008A829B82CE0101962BDE8091DA0094D9F2
:100E1000A114B10409F4A9CFF3D8A7CF0024552712
:100E200004C0080E591F880F991F009729F0769566
:100E30006795B8F37105B9F7802D952F089597FB45
:100E4000072E16F4009406D077FD08D09DD007FC3D
:100E500005D03EF4909581959F4F089570956195CA
:100E60007F4F0895A1E21A2EAA1BBB1BFD010DC0E6
:100E7000AA1FBB1FEE1FFF1FA217B307E407F5074A
:100E800020F0A21BB30BE40BF50B661F771F881F26
:100E9000991F1A9469F760957095809590959B01BC
:100EA000AC01BD01CF010895052E97FB16F4009407
:100EB0000FD057FD05D0D6DF07FC02D046F408C09E
:100EC00050954095309521953F4F4F4F5F4F089576
:100ED00090958095709561957F4F8F4F9F4F0895A6
:100EE00068940013E894A0E0B0E0E8E7F7E01DC0E4
:100EF000EFEFE7F959016A015E23550FEE08FE2C6A
:100F000087019B01AC019E23990F660B762FCB01C5
:100F100055D0CDB7DEB7EAE024C02F923F924F9272
:100F20005F926F927F928F929F92AF92BF92CF9279
:100F3000DF92EF92FF920F931F93CF93DF93CDB782
:100F4000DEB7CA1BDB0B0FB6F894DEBF0FBECDBFFA
:100F500009942A88398848885F846E847D848C84CB
:100F60009B84AA84B984C884DF80EE80FD800C81D4
:100F70001B81AA81B981CE0FD11D0FB6F894DEBFB7
:100F80000FBECDBFED010895AA1BBB1B51E107C0E9
:100F9000AA1FBB1FA617B70710F0A61BB70B881F09
:100FA000991F5A95A9F780959095BC01CD01089598
:100FB000EE0FFF1F0590F491E02D0994DF93CF937E
:100FC0009F92A0E49A2E0024D001E001F001169532
:100FD0000795F794E794D794C794B794A79448F4E7
:100FE0001068A20FB31FC41FD51FE61FF71F081EEE
:100FF000191E220F331F441F551F661F771F881F9E
:10100000991F9A9421F79D01AE01BF01C0011124DF
:101010009F90CF91DF91089581E090E0F89400C017
:04102000F894FFCF72
:101024000100000000006C056C056C0548054405D2
:10103400410500000000EE04AB04A9044805440582
:04104400A6045302A9
:00000001FF
